{
  "contractName": "Auth",
  "abi": [
    {
      "anonymous": false,
      "inputs": [
        {
          "indexed": false,
          "internalType": "string",
          "name": "username",
          "type": "string"
        },
        {
          "indexed": false,
          "internalType": "string",
          "name": "email",
          "type": "string"
        },
        {
          "indexed": false,
          "internalType": "string",
          "name": "password",
          "type": "string"
        }
      ],
      "name": "UserCreated",
      "type": "event"
    },
    {
      "inputs": [],
      "name": "userCount",
      "outputs": [
        {
          "internalType": "uint256",
          "name": "",
          "type": "uint256"
        }
      ],
      "stateMutability": "view",
      "type": "function"
    },
    {
      "inputs": [
        {
          "internalType": "uint256",
          "name": "",
          "type": "uint256"
        }
      ],
      "name": "usersList",
      "outputs": [
        {
          "internalType": "string",
          "name": "username",
          "type": "string"
        },
        {
          "internalType": "string",
          "name": "email",
          "type": "string"
        },
        {
          "internalType": "string",
          "name": "password",
          "type": "string"
        }
      ],
      "stateMutability": "view",
      "type": "function"
    },
    {
      "inputs": [
        {
          "internalType": "string",
          "name": "_username",
          "type": "string"
        },
        {
          "internalType": "string",
          "name": "_email",
          "type": "string"
        },
        {
          "internalType": "string",
          "name": "_password",
          "type": "string"
        }
      ],
      "name": "createUser",
      "outputs": [],
      "stateMutability": "nonpayable",
      "type": "function"
    }
  ],
  "bytecode": "0x60806040525f8055348015610012575f80fd5b50610d3a806100205f395ff3fe608060405234801561000f575f80fd5b506004361061003f575f3560e01c806307973ccf14610043578063502aa3b51461006157806359ae069b14610093575b5f80fd5b61004b6100af565b60405161005891906104b4565b60405180910390f35b61007b60048036038101906100769190610508565b6100b4565b60405161008a939291906105bd565b60405180910390f35b6100ad60048036038101906100a89190610733565b61026c565b005b5f5481565b6001602052805f5260405f205f91509050805f0180546100d390610804565b80601f01602080910402602001604051908101604052809291908181526020018280546100ff90610804565b801561014a5780601f106101215761010080835404028352916020019161014a565b820191905f5260205f20905b81548152906001019060200180831161012d57829003601f168201915b50505050509080600101805461015f90610804565b80601f016020809104026020016040519081016040528092919081815260200182805461018b90610804565b80156101d65780601f106101ad576101008083540402835291602001916101d6565b820191905f5260205f20905b8154815290600101906020018083116101b957829003601f168201915b5050505050908060020180546101eb90610804565b80601f016020809104026020016040519081016040528092919081815260200182805461021790610804565b80156102625780601f1061023957610100808354040283529160200191610262565b820191905f5260205f20905b81548152906001019060200180831161024557829003601f168201915b5050505050905083565b5f8351116102af576040517f08c379a00000000000000000000000000000000000000000000000000000000081526004016102a69061087e565b60405180910390fd5b5f8251116102f2576040517f08c379a00000000000000000000000000000000000000000000000000000000081526004016102e9906108e6565b60405180910390fd5b5f815111610335576040517f08c379a000000000000000000000000000000000000000000000000000000000815260040161032c9061094e565b60405180910390fd5b60028260405161034591906109a6565b90815260200160405180910390205f9054906101000a900460ff16156103a0576040517f08c379a000000000000000000000000000000000000000000000000000000000815260040161039790610a06565b60405180910390fd5b5f808154809291906103b190610a51565b919050555060405180606001604052808481526020018381526020018281525060015f805481526020019081526020015f205f820151815f0190816103f69190610c35565b50602082015181600101908161040c9190610c35565b5060408201518160020190816104229190610c35565b50905050600160028360405161043891906109a6565b90815260200160405180910390205f6101000a81548160ff0219169083151502179055507fdd75d3192535501dcaeaed99fb80f0f968daa8fb6d037d943472244718aa429083838360405161048f939291906105bd565b60405180910390a1505050565b5f819050919050565b6104ae8161049c565b82525050565b5f6020820190506104c75f8301846104a5565b92915050565b5f604051905090565b5f80fd5b5f80fd5b6104e78161049c565b81146104f1575f80fd5b50565b5f81359050610502816104de565b92915050565b5f6020828403121561051d5761051c6104d6565b5b5f61052a848285016104f4565b91505092915050565b5f81519050919050565b5f82825260208201905092915050565b5f5b8381101561056a57808201518184015260208101905061054f565b5f8484015250505050565b5f601f19601f8301169050919050565b5f61058f82610533565b610599818561053d565b93506105a981856020860161054d565b6105b281610575565b840191505092915050565b5f6060820190508181035f8301526105d58186610585565b905081810360208301526105e98185610585565b905081810360408301526105fd8184610585565b9050949350505050565b5f80fd5b5f80fd5b7f4e487b71000000000000000000000000000000000000000000000000000000005f52604160045260245ffd5b61064582610575565b810181811067ffffffffffffffff821117156106645761066361060f565b5b80604052505050565b5f6106766104cd565b9050610682828261063c565b919050565b5f67ffffffffffffffff8211156106a1576106a061060f565b5b6106aa82610575565b9050602081019050919050565b828183375f83830152505050565b5f6106d76106d284610687565b61066d565b9050828152602081018484840111156106f3576106f261060b565b5b6106fe8482856106b7565b509392505050565b5f82601f83011261071a57610719610607565b5b813561072a8482602086016106c5565b91505092915050565b5f805f6060848603121561074a576107496104d6565b5b5f84013567ffffffffffffffff811115610767576107666104da565b5b61077386828701610706565b935050602084013567ffffffffffffffff811115610794576107936104da565b5b6107a086828701610706565b925050604084013567ffffffffffffffff8111156107c1576107c06104da565b5b6107cd86828701610706565b9150509250925092565b7f4e487b71000000000000000000000000000000000000000000000000000000005f52602260045260245ffd5b5f600282049050600182168061081b57607f821691505b60208210810361082e5761082d6107d7565b5b50919050565b7f557365726e616d652069732072657175697265640000000000000000000000005f82015250565b5f61086860148361053d565b915061087382610834565b602082019050919050565b5f6020820190508181035f8301526108958161085c565b9050919050565b7f456d61696c2069732072657175697265640000000000000000000000000000005f82015250565b5f6108d060118361053d565b91506108db8261089c565b602082019050919050565b5f6020820190508181035f8301526108fd816108c4565b9050919050565b7f50617373776f72642069732072657175697265640000000000000000000000005f82015250565b5f61093860148361053d565b915061094382610904565b602082019050919050565b5f6020820190508181035f8301526109658161092c565b9050919050565b5f81905092915050565b5f61098082610533565b61098a818561096c565b935061099a81856020860161054d565b80840191505092915050565b5f6109b18284610976565b915081905092915050565b7f456d61696c20697320616c7265616479207265676973746572656400000000005f82015250565b5f6109f0601b8361053d565b91506109fb826109bc565b602082019050919050565b5f6020820190508181035f830152610a1d816109e4565b9050919050565b7f4e487b71000000000000000000000000000000000000000000000000000000005f52601160045260245ffd5b5f610a5b8261049c565b91507fffffffffffffffffffffffffffffffffffffffffffffffffffffffffffffffff8203610a8d57610a8c610a24565b5b600182019050919050565b5f819050815f5260205f209050919050565b5f6020601f8301049050919050565b5f82821b905092915050565b5f60088302610af47fffffffffffffffffffffffffffffffffffffffffffffffffffffffffffffffff82610ab9565b610afe8683610ab9565b95508019841693508086168417925050509392505050565b5f819050919050565b5f610b39610b34610b2f8461049c565b610b16565b61049c565b9050919050565b5f819050919050565b610b5283610b1f565b610b66610b5e82610b40565b848454610ac5565b825550505050565b5f90565b610b7a610b6e565b610b85818484610b49565b505050565b5b81811015610ba857610b9d5f82610b72565b600181019050610b8b565b5050565b601f821115610bed57610bbe81610a98565b610bc784610aaa565b81016020851015610bd6578190505b610bea610be285610aaa565b830182610b8a565b50505b505050565b5f82821c905092915050565b5f610c0d5f1984600802610bf2565b1980831691505092915050565b5f610c258383610bfe565b9150826002028217905092915050565b610c3e82610533565b67ffffffffffffffff811115610c5757610c5661060f565b5b610c618254610804565b610c6c828285610bac565b5f60209050601f831160018114610c9d575f8415610c8b578287015190505b610c958582610c1a565b865550610cfc565b601f198416610cab86610a98565b5f5b82811015610cd257848901518255600182019150602085019450602081019050610cad565b86831015610cef5784890151610ceb601f891682610bfe565b8355505b6001600288020188555050505b50505050505056fea26469706673582212205c403ddc84a08be347fb790eac01074b9c553820ee491bfecb818f3d363005b964736f6c63430008150033",
  "immutableReferences": {},
  "source": "// SPDX-License-Identifier: MIT\npragma solidity >=0.4.22 <0.9.0;\n\ncontract Auth {\n    uint public userCount = 0;\n\n    mapping(uint => User) public usersList;\n    mapping(string => bool) private usedEmails;\n\n    struct User {\n        string username;\n        string email;\n        string password;\n    }\n\n    // Events\n    event UserCreated(\n        string username,\n        string email,\n        string password\n    );\n\n    function createUser(string memory _username, string memory _email, string memory _password) public {\n        require(bytes(_username).length > 0, \"Username is required\");\n        require(bytes(_email).length > 0, \"Email is required\");\n        require(bytes(_password).length > 0, \"Password is required\");\n        require(!usedEmails[_email], \"Email is already registered\");\n\n        userCount++;\n        usersList[userCount] = User(_username, _email, _password);\n        usedEmails[_email] = true;\n\n        emit UserCreated(_username, _email, _password);\n    }\n}\n",
  "sourcePath": "/Users/mahaanbhat/Desktop/auth-app/src/contracts/Auth.sol",
  "compiler": {
    "name": "solc",
    "version": "0.8.21+commit.d9974bed.Emscripten.clang"
  },
  "schemaVersion": "3.4.16",
  "updatedAt": "2024-06-05T06:04:59.322Z",
  "devdoc": {
    "kind": "dev",
    "methods": {},
    "version": 1
  },
  "userdoc": {
    "kind": "user",
    "methods": {},
    "version": 1
  }
}